:100000000C9449000C942C010C947D000C94BF00BE
:100010000C942C010C942C010C942C010C942C01AC
:100020000C942C010C942C010C942C010C942C019C
:100030000C942C010C942C010C942C010C942C018C
:100040000C942C010C942C010C942C010C942C017C
:100050000C942C010C942C010C942C010C942C016C
:100060000C942C010C942C010C942C010C942C015C
:100070000C942C010C942C010C942C010C942C014C
:100080000C942C010C942C010C942C010100010205
:10009000800011241FBECFEFD0E1DEBFCDBFECE862
:1000A000F0E040E019C0B791A791379127910791EF
:1000B00007FD0EC097918791EF01F92FE82F0BBF35
:1000C00007900D92A217B307D9F7FE011BBE04C01B
:1000D0001D92A217B307E1F7E139F40721F70E9457
:0A00E00001010C947300F894FFCFA7
:1000EA003F065B4F666D7D077F6F777C395E797956
:1000FA001F920F920FB60F9211240BB60F922F93E5
:10010A003F934F935F936F937F938F939F93AF9395
:10011A00BF93EF93FF93809100019091010118160C
:10012A0019062CF4019790930101809300010E9413
:10013A001D0180910001909101018F70907899239F
:10014A0024F40197806F9F6F01960E941101FF911D
:10015A00EF91BF91AF919F918F917F916F915F9135
:10016A004F913F912F910F900BBE0F900FBE0F90A2
:04017A001F90189525
:10017E001F920F920FB60F9211240BB60F922F9360
:10018E003F934F935F936F937F938F939F93AF9311
:10019E00BF93EF93FF9380910001909101018F30F7
:1001AE0091052CF4019690930101809300010E9419
:1001BE001D0180910001909101018F70907899231B
:1001CE0024F40197806F9F6F01960E941101FF9199
:1001DE00EF91BF91AF919F918F917F916F915F91B1
:1001EE004F913F912F910F900BBE0F900FBE0F901E
:0401FE001F901895A1
:100202008FEF82BB90EF91BB87BBEAE6F0E0808183
:100212008C63808389B7866089BF789412BAFFCFD6
:10022200092E000CAA0B86519F4FAF4FFC015A2F8B
:080232000E94250168BB08953C
:10023A0080B3863021F410920101109200010895D2
:0E024A0057FD03C05BBF679108956081089562
:040258000C94000002
:00000001FF
