:100000000C944A000C94C0000C94C0000C94C000E6
:100010000C94C0000C94C0000C94C0000C94C00060
:100020000C94C0000C94C0000C94C0000C94C00050
:100030000C94C0000C94C0000C94C0000C94C00040
:100040000C94C0000C94C0000C94C0000C94C00030
:100050000C94C0000C94C0000C94C0000C94C00020
:100060000C94C0000C94C0000C94C0000C94C00010
:100070000C94C0000C94C0000C94C0000C94C00000
:100080000C94C0000C94C0000C94C0000100011E30
:100090000001840011241FBECFEFD0E1DEBFCDBF31
:1000A000ECE8F0E040E019C0B791A79137912791B3
:1000B000079107FD0EC097918791EF01F92FE82F67
:1000C0000BBF07900D92A217B307D9F7FE011BBE15
:1000D00004C01D92A217B307E1F7E339F40721F733
:0C00E0000E9476000C947400F894FFCF8E
:1000EC00CF93DF93CDB7DEB76E970FB6F894DEBF24
:1000FC000FBECDBF8FEF87BB8EE1E0E0F1E0DE01FC
:10010C00119601900D928A95E1F700E010E013C072
:10011C00F801EE0FFF1FE00FF11F81E090E08C0F54
:10012C009D1FE80FF91F808188BB818192810E94FD
:10013C00B1000F5F1F4FF801EE0FFF1FE00FF11F13
:10014C0081E090E08C0F9D1FE80FF91F8181928157
:06015C00892BF1F6DACF59
:1001620020E030E008C0EFECF7E03197F1F700C093
:0E01720000002F5F3F4F28173907ACF30895A8
:040180000C940000DB
:1001840001E80302E80304E80308E80310E80308AD
:0E019400E80304E80302E80301E803000000AA
:00000001FF
