:100000000C944A000C94EA000C9476000C94A8001E
:100010000C94EA000C94EA000C94EA000C94EA00B8
:100020000C94EA000C94EA000C94EA000C94EA00A8
:100030000C94EA000C94EA000C94EA000C94EA0098
:100040000C94EA000C94EA000C94EA000C94EA0088
:100050000C94EA000C94EA000C94EA000C94EA0078
:100060000C94EA000C94EA000C94EA000C94EA0068
:100070000C94EA000C94EA000C94EA000C94EA0058
:100080000C94EA000C94EA000C94EA0001000102CE
:100090000001D80011241FBECFEFD0E1DEBFCDBFDD
:1000A000ECE8F0E040E019C0B791A79137912791B3
:1000B000079107FD0EC097918791EF01F92FE82F67
:1000C0000BBF07900D92A217B307D9F7FE011BBE15
:1000D00004C01D92A217B307E1F7E339F40721F733
:0C00E0000E94DA000C947400F894FFCF2A
:1000EC001F920F920FB60F9211242F933F934F93A1
:1000FC005F938F939F9380910001909101019C01DC
:10010C0021503109309301012093000187709078C0
:10011C00992324F40197886F9F6F019621E030E0BA
:10012C00A90102C0440F551F8A95E2F745BB9F9168
:10013C008F915F914F913F912F910F900FBE0F9028
:04014C001F90189553
:100150001F920F920FB60F9211242F933F934F933C
:100160005F938F939F9380910001909101019C0177
:100170002F5F3F4F309301012093000187709078EB
:10018000992324F40197886F9F6F019621E030E056
:10019000A90102C0440F551F8A95E2F745BB9F9104
:1001A0008F915F914F913F912F910F900FBE0F90C4
:0401B0001F901895EF
:1001B4008FEF84BB80EF81BBEAE6F0E080818C6343
:1001C400808389B7866089BF789481E085BBFFCF3F
:0401D4000C94000087
:0201D800401FC6
:00000001FF
