:100000000C9446000C94FD000C94FD000C94FD0033
:100010000C94FD000C94FD000C94FD000C94FD006C
:100020000C94FD000C94FD000C94FD000C94FD005C
:100030000C94FD000C94FD000C94FD000C94FD004C
:100040000C94FD000C94FD000C94FD000C94FD003C
:100050000C94FD000C94FD000C94FD000C94FD002C
:100060000C94FD000C94FD000C94FD000C94FD001C
:100070000C94FD000C94FD000C94FD000C94FD000C
:100080000C94FD000C94FD000C94FD0011241FBE87
:10009000CFEFD0E1DEBFCDBF0E9458000C945000DE
:0400A000F894FFCF02
:0C00A40054657374205465787420320099
:1000B000CF93DF93CDB7DEB760970FB6F894DEBF6E
:1000C0000FBECDBF8FEF84BB0E94850024EA30E0D5
:1000D00040E08CE0F901DE011196742F0E94DE00F1
:1000E000CE0101960E94EC0083E090E00E94F900AE
:1000F00089E59FE69E878D878FE690E0988B8F87B6
:0A010000CE010D960E94EC00FFCF27
:10010A00CF938FEF84BB15BAC0E2C5BB0E94A7008C
:10011A00C5BB0E94A70080E885BB0E94A70015BA4C
:10012A000E94A70080EF85BB0E94A70015BA0E9413
:10013A00A70080E685BB0E94A70081E00E94BA0062
:04014A00CF910895B4
:10014E0085B3886085BB8FEC97E00197F1F700C00F
:10015E00000085B3877F85BB8FEC97E00197F1F7A1
:06016E0000C0000008952E
:10017400CF93C82F85BB85B38B7F85BB0E94A70017
:10018400C295C07FC5BB85B38B7F85BB0E94A7008A
:04019400CF9108956A
:10019800CF93C82F85BB85B3846085BB0E94A70019
:1001A800C295C07FC5BB85B3846085BB0E94A7008C
:0401B800CF91089546
:1001BC00992777FD06C07BBF07900D920197E1F759
:0C01CC00089501900D920197E1F708954D
:1001D800CF93DF93EC0103C021960E94CC00888165
:0A01E8008111FACFDF91CF91089545
:0801F20080680E94BA00089524
:0401FA000C94000061
:00000001FF
